:020000040000FA
:100000000C9462000C948A000C948A000C948A0070
:100010000C948A000C948A000C948A000C948A0038
:100020000C948A000C948A000C948A000C94490267
:100030000C948A000C948A000C948A000C948A0018
:100040000C94FF010C948A000C948A000C948A0092
:100050000C948A000C948A000C948A000C948A00F8
:100060000C948A000C948A000000000024002700F1
:100070002A0000000000250028002B0000000008D6
:10008000000201000003040700000000000000005F
:1000900000000000230026002900040404040404D6
:1000A0000404020202020202030303030303010227
:1000B00004081020408001020408102001020408F6
:1000C0001020D50411241FBECFEFD8E0DEBFCDBF76
:1000D00011E0A0E0B1E0E4E6FDE002C005900D9281
:1000E000A030B107D9F721E0A0E0B1E001C01D9236
:1000F000AB33B207E1F710E0C2E6D0E004C02197CD
:10010000FE010E94AA06C136D107C9F70E944A0320
:100110000C94B0060C94000090E0FC01E458FF4FF2
:100120002491FC01E255FF4F3491FC01E656FF4F4C
:10013000E491EE23C9F0222339F0233001F1A8F431
:10014000213019F1223029F1F0E0EE0FFF1FEE58B7
:10015000FF4FA591B4918FB7F894EC91611126C02F
:1001600030953E233C938FBF08952730A9F0283067
:10017000C9F0243049F7809180008F7D03C08091C1
:1001800080008F7780938000DFCF84B58F7784BD28
:10019000DBCF84B58F7DFBCF8091B0008F778093CC
:1001A000B000D2CF8091B0008F7DF9CF3E2BDACF57
:1001B000CF93DF9390E0FC01E255FF4F24918656E8
:1001C0009F4FFC0184918823D1F090E0880F991F04
:1001D000FC01E859FF4FA591B491FC01EE58FF4F87
:1001E000C591D49161110EC09FB7F8948C91E22F04
:1001F000E0958E238C932881E223E8839FBFDF91D3
:10020000CF9108958FB7F894EC91E22BEC938FBFC8
:10021000F6CF3FB7F8948091070190910801A09123
:100220000901B0910A0126B5A89B05C02F3F19F01E
:100230000196A11DB11D3FBFBA2FA92F982F882766
:10024000BC01CD01620F711D811D911D42E0660F41
:10025000771F881F991F4A95D1F708958F929F9213
:10026000AF92BF92CF92DF92EF92FF920E9409016C
:100270004B015C0180E9C82EDD24D394E12CF12CE4
:100280000E940901681979098A099B09683E73402F
:1002900081059105A8F321E0C21AD108E108F1080F
:1002A00088EE880E83E0981EA11CB11CC114D104F5
:1002B000E104F10429F7FF90EF90DF90CF90BF9019
:1002C000AF909F908F9008958F929F92AF92BF9220
:1002D000FF920F931F93CF93DF93FC01F0808BE08D
:1002E0008F1508F44AC0828108E512E0081B110945
:1002F00087FD1395000F111F000F111F8181C8E8A2
:10030000D0E0C81BD10987FDD395CC0FDD1FCC0FE2
:10031000DD1F4E010D2E000CAA08BB089801012E0E
:10032000000C440B550B281939094A095B09DB01FC
:100330000E94340524EB30E040E050E00E940A05C2
:10034000820E931EA41EB51E8C169D062CF0E8018D
:10035000801691060CF4E4012297CC0FDD1F2FB715
:10036000F8948F2D90E0FC01EE0FFF1FE80FF91FAE
:10037000E55FFE4FD283C1832FBFDF91CF911F91E5
:100380000F91FF90BF90AF909F908F900895892B11
:1003900079F41092800082E08093810010928500B1
:1003A00010928400B19A80916F00826080936F00F8
:1003B00008950F931F9390E0FC01E255FF4F649165
:1003C000FC01E656FF4FE491F0E0EE0FFF1FE0570F
:1003D000FF4F8591949100E412E42FE030E0462F26
:1003E0000E940503611571058105910529F06F5F74
:1003F0007F4F8F4F9F4F9F701F910F9108951F92B6
:100400000F920FB60F9211242F933F938F939F93C8
:10041000AF93BF938091030190910401A0910501D6
:10042000B09106013091020123E0230F2D3758F5DA
:100430000196A11DB11D20930201809303019093A9
:100440000401A0930501B0930601809107019091EA
:100450000801A0910901B0910A010196A11DB11DE9
:100460008093070190930801A0930901B0930A01BA
:10047000BF91AF919F918F913F912F910F900FBEA0
:100480000F901F90189526E8230F0296A11DB11D0D
:10049000D2CF1F920F920FB60F9211242F933F933A
:1004A0004F935F936F937F938F939F93AF93BF937C
:1004B000CF93DF93EF93FF9380910101C0910001EF
:1004C000D0E087FF24C010928500109284008091B4
:1004D00001018F5F8093010180910101082E000CC2
:1004E000990B8C179D0724F4809101018C30C4F185
:1004F0008091840090918500049680349C4908F492
:100500007AC08091840090918500049676C0809195
:100510000101082E000C990B8C179D07C4F6E09181
:1005200001018E2FEE0F990BFC01EE0FFF1FE80F5C
:10053000F91FE55FFE4F808186FFC9CFE091010181
:100540008E2FEE0F990BFC01EE0FFF1FE80FF91F26
:10055000E55FFE4F808160E08F730E948C00B7CF13
:100560002091840030918500E09101018E2FEE0FE3
:10057000990BFC01EE0FFF1FE80FF91FE55FFE4F1F
:1005800081819281820F931F9093890080938800CC
:10059000E09101018E2FEE0F990BFC01EE0FFF1F72
:1005A000E80FF91FE55FFE4F808186FF11C0E091E3
:1005B00001018E2FEE0F990BFC01EE0FFF1FE80FCC
:1005C000F91FE55FFE4F808161E08F730E948C0010
:1005D000FF91EF91DF91CF91BF91AF919F918F915B
:1005E0007F916F915F914F913F912F910F900FBE2F
:1005F0000F901F90189580E49CE990938900809358
:1006000088008FEF80930101E3CFCF92DF92EF92CA
:10061000FF920F931F93E82FF92F05C00150110986
:100620002109310961F1908196239417B9F305C02E
:10063000015011092109310911F190819623941378
:10064000F7CFC12CD12CE12CF12C0AC08FEFC81AA6
:10065000D80AE80AF80A0C151D052E053F0579F0A1
:1006600080818623841791F36C2D7D2D8E2D9F2DF7
:100670001F910F91FF90EF90DF90CF90089560E071
:1006800070E080E090E01F910F91FF90EF90DF907D
:10069000CF900895789484B5826084BD84B58160DC
:1006A00084BD85B5826085BD85B5816085BD80913D
:1006B0006E00816080936E001092810080918100B5
:1006C00082608093810080918100816080938100AD
:1006D000809180008160809380008091B10084606F
:1006E0008093B1008091B00081608093B0008091D0
:1006F0007A00846080937A0080917A00826080938F
:100700007A0080917A00816080937A0080917A00EB
:10071000806880937A001092C10061E083E10E94BA
:10072000D80060E082E10E94D80061E081E10E948F
:10073000D80060E080E10E94D800809134018C30C4
:1007400008F043C061E089E00E94D8008091340144
:10075000282F30E0F901EE0FFF1FE20FF31FE55FD6
:10076000FE4F9081907C9960908310923501109299
:1007700036012CE0622F0E949E0690E0829FB0011D
:10078000112430E020E0AB01420F531FFA01EE0FBD
:10079000FF1FE40FF51FE55FFE4F408146FD07C0D8
:1007A0002F5F3F4F2C30310571F70E94C701E09158
:1007B00034018E2F90E0FC01EE0FFF1FE80FF91FB0
:1007C000E55FFE4F80818064808380912F018C30B3
:1007D00008F043C061E08AE00E94D80080912F01B8
:1007E000282F30E0F901EE0FFF1FE20FF31FE55F46
:1007F000FE4F9081907C9A6090831092300110920D
:1008000031012CE0622F0E949E0690E0829FB00191
:10081000112430E020E0AB01420F531FFA01EE0F2C
:10082000FF1FE40FF51FE55FFE4F408146FD07C047
:100830002F5F3F4F2C30310571F70E94C701E091C7
:100840002F018E2F90E0FC01EE0FFF1FE80FF91F24
:10085000E55FFE4F808180648083C3E0D0E003E2E7
:1008600010E080E0C82E80E0D82EAA24A394B12CFA
:1008700060E083E10E948C00CE010197F1F761E016
:1008800083E10E948C00C8010197F1F760E083E1E9
:100890000E948C0082E10E94D9010E94A50526E9F0
:1008A00033E44BE05DE30E94090620E030E040E0E5
:1008B0005FE30E9409060E946D0570933A01609300
:1008C000390160E081E10E948C00CE010197F1F7CF
:1008D00061E081E10E948C00C8010197F1F760E0BE
:1008E00081E10E948C0080E10E94D9010E94A5054F
:1008F00026E933E44BE05DE30E94090620E030E0A6
:1009000040E05FE30E9409060E946D057B01709341
:100910003801609337018091390190913A018F300D
:1009200091055CF56AE570E084E391E00E94640162
:100930000E942E018FE0E816F10444F58091320107
:1009400090913301892B91F4B0923301A09232013E
:100950006AE570E08FE291E00E9464010E942E013E
:1009600070E060E08FE291E00E946401C114D10464
:1009700009F47ECF0E9400007BCF4597DCF270E047
:1009800060E084E391E00E946401D4CF85E1E81641
:10099000F10464F38091320190913301019731F7B2
:1009A0001092330110923201E1CF809100018C301E
:1009B00048F591E0980F909300018093340190E006
:1009C000FC01EE0FFF1FE80FF91FE55FFE4F88EBFC
:1009D0009BE092838183809100018C30B8F491E098
:1009E000980F9093000180932F0190E0FC01EE0F8F
:1009F000FF1FE80FF91FE55FFE4F88EB9BE0928336
:100A0000818308958FEF80933401E5CF8FEF80933A
:100A10002F010895052E97FB1EF400940E942105D6
:100A200057FD07D00E943C0507FC03D04EF40C9400
:100A3000210550954095309521953F4F4F4F5F4F81
:100A4000089590958095709561957F4F8F4F9F4F3A
:100A500008950E945E05A59F900DB49F900DA49FE0
:100A6000800D911D11240895B7FF0C9429050E9453
:100A70002905821B930B0895A1E21A2EAA1BBB1B0A
:100A8000FD010DC0AA1FBB1FEE1FFF1FA217B3075A
:100A9000E407F50720F0A21BB30BE40BF50B661F70
:100AA000771F881F991F1A9469F760957095809534
:100AB00090959B01AC01BD01CF010895A29FB001AB
:100AC000B39FC001A39F700D811D1124911DB29F82
:100AD000700D811D1124911D08950E947405689464
:100AE000B1110C94030608950E94E80588F09F5701
:100AF00098F0B92F9927B751B0F0E1F0660F771F42
:100B0000881F991F1AF0BA95C9F714C0B13091F037
:100B10000E940206B1E008950C940206672F782F18
:100B20008827B85F39F0B93FCCF3869577956795FC
:100B3000B395D9F73EF490958095709561957F4F68
:100B40008F4F9F4F0895E89409C097FB3EF490950E
:100B50008095709561957F4F8F4F9F4F9923A9F096
:100B6000F92F96E9BB279395F69587957795679525
:100B7000B795F111F8CFFAF4BB0F11F460FF1BC069
:100B80006F5F7F4F8F4F9F4F16C0882311F096E9FC
:100B900011C0772321F09EE8872F762F05C06623AA
:100BA00071F096E8862F70E060E02AF09A95660F63
:100BB000771F881FDAF7880F9695879597F908951C
:100BC00057FD9058440F551F59F05F3F71F04795FE
:100BD000880F97FB991F61F09F3F79F087950895E3
:100BE000121613061406551FF2CF4695F1DF08C002
:100BF000161617061806991FF1CF8695710561051F
:100C000008940895E894BB2766277727CB0197F9C6
:100C100008950E941C060C948D060E947F0638F0F1
:100C20000E94860620F0952311F00C9476060C9411
:100C30007C0611240C9403060E94E00570F3959F36
:100C4000C1F3950F50E0551F629FF001729FBB27C3
:100C5000F00DB11D639FAA27F00DB11DAA1F649F5F
:100C60006627B00DA11D661F829F2227B00DA11D12
:100C7000621F739FB00DA11D621F839FA00D611D98
:100C8000221F749F3327A00D611D231F849F600DB9
:100C9000211D822F762F6A2F11249F5750409AF0E2
:100CA000F1F088234AF0EE0FFF1FBB1F661F771F6E
:100CB000881F91505040A9F79E3F510580F00C9439
:100CC00076060C9403065F3FE4F3983ED4F38695D2
:100CD00077956795B795F795E7959F5FC1F7FE2BD9
:100CE000880F911D9695879597F9089597F99F67B5
:100CF00080E870E060E008959FEF80EC08950024A4
:100D00000A941616170618060906089500240A9470
:100D100012161306140605060895092E0394000CF6
:100D200011F4882352F0BB0F40F4BF2B11F460FF85
:100D300004C06F5F7F4F8F4F9F4F0895991B79E0DD
:100D400004C0991F961708F0961B881F7A95C9F75B
:100D500080950895EE0FFF1F0590F491E02D099402
:040D6000F894FFCF35
:107E0000112484B714BE81FFF0D085E080938100F7
:107E100082E08093C00088E18093C10086E0809377
:107E2000C20080E18093C4008EE0C9D0259A86E02C
:107E300020E33CEF91E0309385002093840096BBD3
:107E4000B09BFECF1D9AA8958150A9F7CC24DD24C4
:107E500088248394B5E0AB2EA1E19A2EF3E0BF2EE7
:107E6000A2D0813461F49FD0082FAFD0023811F036
:107E7000013811F484E001C083E08DD089C08234E0
:107E800011F484E103C0853419F485E0A6D080C0E4
:107E9000853579F488D0E82EFF2485D0082F10E0AE
:107EA000102F00270E291F29000F111F8ED06801E7
:107EB0006FC0863521F484E090D080E0DECF843638
:107EC00009F040C070D06FD0082F6DD080E0C81688
:107ED00080E7D80618F4F601B7BEE895C0E0D1E017
:107EE00062D089930C17E1F7F0E0CF16F0E7DF06D8
:107EF00018F0F601B7BEE89568D007B600FCFDCFD4
:107F0000A601A0E0B1E02C9130E011968C91119780
:107F100090E0982F8827822B932B1296FA010C0160
:107F200087BEE89511244E5F5F4FF1E0A038BF0790
:107F300051F7F601A7BEE89507B600FCFDCF97BE46
:107F4000E89526C08437B1F42ED02DD0F82E2BD052
:107F50003CD0F601EF2C8F010F5F1F4F84911BD097
:107F6000EA94F801C1F70894C11CD11CFA94CF0C13
:107F7000D11C0EC0853739F428D08EE10CD085E9AC
:107F80000AD08FE07ACF813511F488E018D01DD067
:107F900080E101D065CF982F8091C00085FFFCCF94
:107FA0009093C60008958091C00087FFFCCF809118
:107FB000C00084FD01C0A8958091C6000895E0E648
:107FC000F0E098E1908380830895EDDF803219F02E
:107FD00088E0F5DFFFCF84E1DECF1F93182FE3DFCA
:107FE0001150E9F7F2DF1F91089580E0E8DFEE27F6
:047FF000FF270994CA
:027FFE00040479
:00000001FF
